{
  "_format": "hh-sol-artifact-1",
  "contractName": "NovaxReceivableFactory",
  "sourceName": "contracts/novax/NovaxReceivableFactory.sol",
  "abi": [
    {
      "inputs": [],
      "stateMutability": "nonpayable",
      "type": "constructor"
    },
    {
      "inputs": [],
      "name": "AccessControlBadConfirmation",
      "type": "error"
    },
    {
      "inputs": [
        {
          "internalType": "address",
          "name": "account",
          "type": "address"
        },
        {
          "internalType": "bytes32",
          "name": "neededRole",
          "type": "bytes32"
        }
      ],
      "name": "AccessControlUnauthorizedAccount",
      "type": "error"
    },
    {
      "inputs": [],
      "name": "EnforcedPause",
      "type": "error"
    },
    {
      "inputs": [],
      "name": "ExpectedPause",
      "type": "error"
    },
    {
      "inputs": [],
      "name": "ReentrancyGuardReentrantCall",
      "type": "error"
    },
    {
      "anonymous": false,
      "inputs": [
        {
          "indexed": false,
          "internalType": "address",
          "name": "account",
          "type": "address"
        }
      ],
      "name": "Paused",
      "type": "event"
    },
    {
      "anonymous": false,
      "inputs": [
        {
          "indexed": true,
          "internalType": "bytes32",
          "name": "receivableId",
          "type": "bytes32"
        },
        {
          "indexed": true,
          "internalType": "address",
          "name": "exporter",
          "type": "address"
        },
        {
          "indexed": true,
          "internalType": "address",
          "name": "importer",
          "type": "address"
        },
        {
          "indexed": false,
          "internalType": "uint256",
          "name": "amountUSD",
          "type": "uint256"
        },
        {
          "indexed": false,
          "internalType": "bytes32",
          "name": "metadataCID",
          "type": "bytes32"
        },
        {
          "indexed": false,
          "internalType": "uint256",
          "name": "timestamp",
          "type": "uint256"
        }
      ],
      "name": "ReceivableCreated",
      "type": "event"
    },
    {
      "anonymous": false,
      "inputs": [
        {
          "indexed": true,
          "internalType": "bytes32",
          "name": "receivableId",
          "type": "bytes32"
        },
        {
          "indexed": false,
          "internalType": "enum NovaxReceivableFactory.ReceivableStatus",
          "name": "oldStatus",
          "type": "uint8"
        },
        {
          "indexed": false,
          "internalType": "enum NovaxReceivableFactory.ReceivableStatus",
          "name": "newStatus",
          "type": "uint8"
        },
        {
          "indexed": false,
          "internalType": "uint256",
          "name": "timestamp",
          "type": "uint256"
        }
      ],
      "name": "ReceivableStatusUpdated",
      "type": "event"
    },
    {
      "anonymous": false,
      "inputs": [
        {
          "indexed": true,
          "internalType": "bytes32",
          "name": "receivableId",
          "type": "bytes32"
        },
        {
          "indexed": false,
          "internalType": "uint256",
          "name": "riskScore",
          "type": "uint256"
        },
        {
          "indexed": false,
          "internalType": "uint256",
          "name": "apr",
          "type": "uint256"
        },
        {
          "indexed": false,
          "internalType": "uint256",
          "name": "timestamp",
          "type": "uint256"
        }
      ],
      "name": "ReceivableVerified",
      "type": "event"
    },
    {
      "anonymous": false,
      "inputs": [
        {
          "indexed": true,
          "internalType": "bytes32",
          "name": "role",
          "type": "bytes32"
        },
        {
          "indexed": true,
          "internalType": "bytes32",
          "name": "previousAdminRole",
          "type": "bytes32"
        },
        {
          "indexed": true,
          "internalType": "bytes32",
          "name": "newAdminRole",
          "type": "bytes32"
        }
      ],
      "name": "RoleAdminChanged",
      "type": "event"
    },
    {
      "anonymous": false,
      "inputs": [
        {
          "indexed": true,
          "internalType": "bytes32",
          "name": "role",
          "type": "bytes32"
        },
        {
          "indexed": true,
          "internalType": "address",
          "name": "account",
          "type": "address"
        },
        {
          "indexed": true,
          "internalType": "address",
          "name": "sender",
          "type": "address"
        }
      ],
      "name": "RoleGranted",
      "type": "event"
    },
    {
      "anonymous": false,
      "inputs": [
        {
          "indexed": true,
          "internalType": "bytes32",
          "name": "role",
          "type": "bytes32"
        },
        {
          "indexed": true,
          "internalType": "address",
          "name": "account",
          "type": "address"
        },
        {
          "indexed": true,
          "internalType": "address",
          "name": "sender",
          "type": "address"
        }
      ],
      "name": "RoleRevoked",
      "type": "event"
    },
    {
      "anonymous": false,
      "inputs": [
        {
          "indexed": false,
          "internalType": "address",
          "name": "account",
          "type": "address"
        }
      ],
      "name": "Unpaused",
      "type": "event"
    },
    {
      "inputs": [],
      "name": "AMC_ROLE",
      "outputs": [
        {
          "internalType": "bytes32",
          "name": "",
          "type": "bytes32"
        }
      ],
      "stateMutability": "view",
      "type": "function"
    },
    {
      "inputs": [],
      "name": "DEFAULT_ADMIN_ROLE",
      "outputs": [
        {
          "internalType": "bytes32",
          "name": "",
          "type": "bytes32"
        }
      ],
      "stateMutability": "view",
      "type": "function"
    },
    {
      "inputs": [
        {
          "internalType": "uint256",
          "name": "",
          "type": "uint256"
        }
      ],
      "name": "allReceivables",
      "outputs": [
        {
          "internalType": "bytes32",
          "name": "",
          "type": "bytes32"
        }
      ],
      "stateMutability": "view",
      "type": "function"
    },
    {
      "inputs": [
        {
          "internalType": "address",
          "name": "_importer",
          "type": "address"
        },
        {
          "internalType": "uint256",
          "name": "_amountUSD",
          "type": "uint256"
        },
        {
          "internalType": "uint256",
          "name": "_dueDate",
          "type": "uint256"
        },
        {
          "internalType": "bytes32",
          "name": "_metadataCID",
          "type": "bytes32"
        },
        {
          "internalType": "bytes32",
          "name": "_importerApprovalId",
          "type": "bytes32"
        }
      ],
      "name": "createReceivable",
      "outputs": [
        {
          "internalType": "bytes32",
          "name": "",
          "type": "bytes32"
        }
      ],
      "stateMutability": "nonpayable",
      "type": "function"
    },
    {
      "inputs": [
        {
          "internalType": "address",
          "name": "",
          "type": "address"
        },
        {
          "internalType": "uint256",
          "name": "",
          "type": "uint256"
        }
      ],
      "name": "exporterReceivables",
      "outputs": [
        {
          "internalType": "bytes32",
          "name": "",
          "type": "bytes32"
        }
      ],
      "stateMutability": "view",
      "type": "function"
    },
    {
      "inputs": [],
      "name": "getAllReceivableIds",
      "outputs": [
        {
          "internalType": "bytes32[]",
          "name": "",
          "type": "bytes32[]"
        }
      ],
      "stateMutability": "view",
      "type": "function"
    },
    {
      "inputs": [
        {
          "internalType": "address",
          "name": "_exporter",
          "type": "address"
        }
      ],
      "name": "getExporterReceivables",
      "outputs": [
        {
          "internalType": "bytes32[]",
          "name": "",
          "type": "bytes32[]"
        }
      ],
      "stateMutability": "view",
      "type": "function"
    },
    {
      "inputs": [
        {
          "internalType": "address",
          "name": "_exporter",
          "type": "address"
        }
      ],
      "name": "getExporterReceivablesWithDetails",
      "outputs": [
        {
          "internalType": "bytes32[]",
          "name": "receivableIds",
          "type": "bytes32[]"
        },
        {
          "components": [
            {
              "internalType": "bytes32",
              "name": "id",
              "type": "bytes32"
            },
            {
              "internalType": "address",
              "name": "exporter",
              "type": "address"
            },
            {
              "internalType": "address",
              "name": "importer",
              "type": "address"
            },
            {
              "internalType": "uint256",
              "name": "amountUSD",
              "type": "uint256"
            },
            {
              "internalType": "uint256",
              "name": "dueDate",
              "type": "uint256"
            },
            {
              "internalType": "uint8",
              "name": "status",
              "type": "uint8"
            },
            {
              "internalType": "bytes32",
              "name": "metadataCID",
              "type": "bytes32"
            },
            {
              "internalType": "uint256",
              "name": "riskScore",
              "type": "uint256"
            },
            {
              "internalType": "uint256",
              "name": "apr",
              "type": "uint256"
            },
            {
              "internalType": "uint256",
              "name": "createdAt",
              "type": "uint256"
            },
            {
              "internalType": "uint256",
              "name": "verifiedAt",
              "type": "uint256"
            },
            {
              "internalType": "address",
              "name": "verificationModule",
              "type": "address"
            }
          ],
          "internalType": "struct NovaxReceivableFactory.Receivable[]",
          "name": "receivables_",
          "type": "tuple[]"
        },
        {
          "internalType": "uint256",
          "name": "count",
          "type": "uint256"
        }
      ],
      "stateMutability": "view",
      "type": "function"
    },
    {
      "inputs": [],
      "name": "getPendingReceivables",
      "outputs": [
        {
          "internalType": "bytes32[]",
          "name": "pendingReceivableIds",
          "type": "bytes32[]"
        },
        {
          "components": [
            {
              "internalType": "bytes32",
              "name": "id",
              "type": "bytes32"
            },
            {
              "internalType": "address",
              "name": "exporter",
              "type": "address"
            },
            {
              "internalType": "address",
              "name": "importer",
              "type": "address"
            },
            {
              "internalType": "uint256",
              "name": "amountUSD",
              "type": "uint256"
            },
            {
              "internalType": "uint256",
              "name": "dueDate",
              "type": "uint256"
            },
            {
              "internalType": "uint8",
              "name": "status",
              "type": "uint8"
            },
            {
              "internalType": "bytes32",
              "name": "metadataCID",
              "type": "bytes32"
            },
            {
              "internalType": "uint256",
              "name": "riskScore",
              "type": "uint256"
            },
            {
              "internalType": "uint256",
              "name": "apr",
              "type": "uint256"
            },
            {
              "internalType": "uint256",
              "name": "createdAt",
              "type": "uint256"
            },
            {
              "internalType": "uint256",
              "name": "verifiedAt",
              "type": "uint256"
            },
            {
              "internalType": "address",
              "name": "verificationModule",
              "type": "address"
            }
          ],
          "internalType": "struct NovaxReceivableFactory.Receivable[]",
          "name": "pendingReceivables_",
          "type": "tuple[]"
        },
        {
          "internalType": "uint256",
          "name": "count",
          "type": "uint256"
        }
      ],
      "stateMutability": "view",
      "type": "function"
    },
    {
      "inputs": [
        {
          "internalType": "bytes32",
          "name": "_receivableId",
          "type": "bytes32"
        }
      ],
      "name": "getReceivable",
      "outputs": [
        {
          "components": [
            {
              "internalType": "bytes32",
              "name": "id",
              "type": "bytes32"
            },
            {
              "internalType": "address",
              "name": "exporter",
              "type": "address"
            },
            {
              "internalType": "address",
              "name": "importer",
              "type": "address"
            },
            {
              "internalType": "uint256",
              "name": "amountUSD",
              "type": "uint256"
            },
            {
              "internalType": "uint256",
              "name": "dueDate",
              "type": "uint256"
            },
            {
              "internalType": "uint8",
              "name": "status",
              "type": "uint8"
            },
            {
              "internalType": "bytes32",
              "name": "metadataCID",
              "type": "bytes32"
            },
            {
              "internalType": "uint256",
              "name": "riskScore",
              "type": "uint256"
            },
            {
              "internalType": "uint256",
              "name": "apr",
              "type": "uint256"
            },
            {
              "internalType": "uint256",
              "name": "createdAt",
              "type": "uint256"
            },
            {
              "internalType": "uint256",
              "name": "verifiedAt",
              "type": "uint256"
            },
            {
              "internalType": "address",
              "name": "verificationModule",
              "type": "address"
            }
          ],
          "internalType": "struct NovaxReceivableFactory.Receivable",
          "name": "",
          "type": "tuple"
        }
      ],
      "stateMutability": "view",
      "type": "function"
    },
    {
      "inputs": [
        {
          "internalType": "bytes32[]",
          "name": "_receivableIds",
          "type": "bytes32[]"
        }
      ],
      "name": "getReceivablesBatch",
      "outputs": [
        {
          "components": [
            {
              "internalType": "bytes32",
              "name": "id",
              "type": "bytes32"
            },
            {
              "internalType": "address",
              "name": "exporter",
              "type": "address"
            },
            {
              "internalType": "address",
              "name": "importer",
              "type": "address"
            },
            {
              "internalType": "uint256",
              "name": "amountUSD",
              "type": "uint256"
            },
            {
              "internalType": "uint256",
              "name": "dueDate",
              "type": "uint256"
            },
            {
              "internalType": "uint8",
              "name": "status",
              "type": "uint8"
            },
            {
              "internalType": "bytes32",
              "name": "metadataCID",
              "type": "bytes32"
            },
            {
              "internalType": "uint256",
              "name": "riskScore",
              "type": "uint256"
            },
            {
              "internalType": "uint256",
              "name": "apr",
              "type": "uint256"
            },
            {
              "internalType": "uint256",
              "name": "createdAt",
              "type": "uint256"
            },
            {
              "internalType": "uint256",
              "name": "verifiedAt",
              "type": "uint256"
            },
            {
              "internalType": "address",
              "name": "verificationModule",
              "type": "address"
            }
          ],
          "internalType": "struct NovaxReceivableFactory.Receivable[]",
          "name": "receivables_",
          "type": "tuple[]"
        }
      ],
      "stateMutability": "view",
      "type": "function"
    },
    {
      "inputs": [
        {
          "internalType": "uint256",
          "name": "_offset",
          "type": "uint256"
        },
        {
          "internalType": "uint256",
          "name": "_limit",
          "type": "uint256"
        }
      ],
      "name": "getReceivablesPaginated",
      "outputs": [
        {
          "internalType": "bytes32[]",
          "name": "receivableIds_",
          "type": "bytes32[]"
        },
        {
          "components": [
            {
              "internalType": "bytes32",
              "name": "id",
              "type": "bytes32"
            },
            {
              "internalType": "address",
              "name": "exporter",
              "type": "address"
            },
            {
              "internalType": "address",
              "name": "importer",
              "type": "address"
            },
            {
              "internalType": "uint256",
              "name": "amountUSD",
              "type": "uint256"
            },
            {
              "internalType": "uint256",
              "name": "dueDate",
              "type": "uint256"
            },
            {
              "internalType": "uint8",
              "name": "status",
              "type": "uint8"
            },
            {
              "internalType": "bytes32",
              "name": "metadataCID",
              "type": "bytes32"
            },
            {
              "internalType": "uint256",
              "name": "riskScore",
              "type": "uint256"
            },
            {
              "internalType": "uint256",
              "name": "apr",
              "type": "uint256"
            },
            {
              "internalType": "uint256",
              "name": "createdAt",
              "type": "uint256"
            },
            {
              "internalType": "uint256",
              "name": "verifiedAt",
              "type": "uint256"
            },
            {
              "internalType": "address",
              "name": "verificationModule",
              "type": "address"
            }
          ],
          "internalType": "struct NovaxReceivableFactory.Receivable[]",
          "name": "receivables_",
          "type": "tuple[]"
        },
        {
          "internalType": "uint256",
          "name": "total",
          "type": "uint256"
        }
      ],
      "stateMutability": "view",
      "type": "function"
    },
    {
      "inputs": [
        {
          "internalType": "bytes32",
          "name": "role",
          "type": "bytes32"
        }
      ],
      "name": "getRoleAdmin",
      "outputs": [
        {
          "internalType": "bytes32",
          "name": "",
          "type": "bytes32"
        }
      ],
      "stateMutability": "view",
      "type": "function"
    },
    {
      "inputs": [],
      "name": "getVerifiedReceivables",
      "outputs": [
        {
          "internalType": "bytes32[]",
          "name": "verifiedReceivableIds",
          "type": "bytes32[]"
        },
        {
          "components": [
            {
              "internalType": "bytes32",
              "name": "id",
              "type": "bytes32"
            },
            {
              "internalType": "address",
              "name": "exporter",
              "type": "address"
            },
            {
              "internalType": "address",
              "name": "importer",
              "type": "address"
            },
            {
              "internalType": "uint256",
              "name": "amountUSD",
              "type": "uint256"
            },
            {
              "internalType": "uint256",
              "name": "dueDate",
              "type": "uint256"
            },
            {
              "internalType": "uint8",
              "name": "status",
              "type": "uint8"
            },
            {
              "internalType": "bytes32",
              "name": "metadataCID",
              "type": "bytes32"
            },
            {
              "internalType": "uint256",
              "name": "riskScore",
              "type": "uint256"
            },
            {
              "internalType": "uint256",
              "name": "apr",
              "type": "uint256"
            },
            {
              "internalType": "uint256",
              "name": "createdAt",
              "type": "uint256"
            },
            {
              "internalType": "uint256",
              "name": "verifiedAt",
              "type": "uint256"
            },
            {
              "internalType": "address",
              "name": "verificationModule",
              "type": "address"
            }
          ],
          "internalType": "struct NovaxReceivableFactory.Receivable[]",
          "name": "verifiedReceivables_",
          "type": "tuple[]"
        },
        {
          "internalType": "uint256",
          "name": "count",
          "type": "uint256"
        }
      ],
      "stateMutability": "view",
      "type": "function"
    },
    {
      "inputs": [
        {
          "internalType": "bytes32",
          "name": "role",
          "type": "bytes32"
        },
        {
          "internalType": "address",
          "name": "account",
          "type": "address"
        }
      ],
      "name": "grantRole",
      "outputs": [],
      "stateMutability": "nonpayable",
      "type": "function"
    },
    {
      "inputs": [
        {
          "internalType": "bytes32",
          "name": "role",
          "type": "bytes32"
        },
        {
          "internalType": "address",
          "name": "account",
          "type": "address"
        }
      ],
      "name": "hasRole",
      "outputs": [
        {
          "internalType": "bool",
          "name": "",
          "type": "bool"
        }
      ],
      "stateMutability": "view",
      "type": "function"
    },
    {
      "inputs": [],
      "name": "pause",
      "outputs": [],
      "stateMutability": "nonpayable",
      "type": "function"
    },
    {
      "inputs": [],
      "name": "paused",
      "outputs": [
        {
          "internalType": "bool",
          "name": "",
          "type": "bool"
        }
      ],
      "stateMutability": "view",
      "type": "function"
    },
    {
      "inputs": [
        {
          "internalType": "bytes32",
          "name": "",
          "type": "bytes32"
        }
      ],
      "name": "receivableExists",
      "outputs": [
        {
          "internalType": "bool",
          "name": "",
          "type": "bool"
        }
      ],
      "stateMutability": "view",
      "type": "function"
    },
    {
      "inputs": [
        {
          "internalType": "bytes32",
          "name": "",
          "type": "bytes32"
        }
      ],
      "name": "receivables",
      "outputs": [
        {
          "internalType": "bytes32",
          "name": "id",
          "type": "bytes32"
        },
        {
          "internalType": "address",
          "name": "exporter",
          "type": "address"
        },
        {
          "internalType": "address",
          "name": "importer",
          "type": "address"
        },
        {
          "internalType": "uint256",
          "name": "amountUSD",
          "type": "uint256"
        },
        {
          "internalType": "uint256",
          "name": "dueDate",
          "type": "uint256"
        },
        {
          "internalType": "uint8",
          "name": "status",
          "type": "uint8"
        },
        {
          "internalType": "bytes32",
          "name": "metadataCID",
          "type": "bytes32"
        },
        {
          "internalType": "uint256",
          "name": "riskScore",
          "type": "uint256"
        },
        {
          "internalType": "uint256",
          "name": "apr",
          "type": "uint256"
        },
        {
          "internalType": "uint256",
          "name": "createdAt",
          "type": "uint256"
        },
        {
          "internalType": "uint256",
          "name": "verifiedAt",
          "type": "uint256"
        },
        {
          "internalType": "address",
          "name": "verificationModule",
          "type": "address"
        }
      ],
      "stateMutability": "view",
      "type": "function"
    },
    {
      "inputs": [
        {
          "internalType": "bytes32",
          "name": "role",
          "type": "bytes32"
        },
        {
          "internalType": "address",
          "name": "callerConfirmation",
          "type": "address"
        }
      ],
      "name": "renounceRole",
      "outputs": [],
      "stateMutability": "nonpayable",
      "type": "function"
    },
    {
      "inputs": [
        {
          "internalType": "bytes32",
          "name": "role",
          "type": "bytes32"
        },
        {
          "internalType": "address",
          "name": "account",
          "type": "address"
        }
      ],
      "name": "revokeRole",
      "outputs": [],
      "stateMutability": "nonpayable",
      "type": "function"
    },
    {
      "inputs": [
        {
          "internalType": "address",
          "name": "_verificationModule",
          "type": "address"
        }
      ],
      "name": "setVerificationModule",
      "outputs": [],
      "stateMutability": "nonpayable",
      "type": "function"
    },
    {
      "inputs": [
        {
          "internalType": "bytes4",
          "name": "interfaceId",
          "type": "bytes4"
        }
      ],
      "name": "supportsInterface",
      "outputs": [
        {
          "internalType": "bool",
          "name": "",
          "type": "bool"
        }
      ],
      "stateMutability": "view",
      "type": "function"
    },
    {
      "inputs": [],
      "name": "totalReceivables",
      "outputs": [
        {
          "internalType": "uint256",
          "name": "",
          "type": "uint256"
        }
      ],
      "stateMutability": "view",
      "type": "function"
    },
    {
      "inputs": [],
      "name": "unpause",
      "outputs": [],
      "stateMutability": "nonpayable",
      "type": "function"
    },
    {
      "inputs": [
        {
          "internalType": "bytes32",
          "name": "_receivableId",
          "type": "bytes32"
        },
        {
          "internalType": "enum NovaxReceivableFactory.ReceivableStatus",
          "name": "_newStatus",
          "type": "uint8"
        }
      ],
      "name": "updateReceivableStatus",
      "outputs": [],
      "stateMutability": "nonpayable",
      "type": "function"
    },
    {
      "inputs": [],
      "name": "verificationModule",
      "outputs": [
        {
          "internalType": "address",
          "name": "",
          "type": "address"
        }
      ],
      "stateMutability": "view",
      "type": "function"
    },
    {
      "inputs": [
        {
          "internalType": "bytes32",
          "name": "_receivableId",
          "type": "bytes32"
        },
        {
          "internalType": "uint256",
          "name": "_riskScore",
          "type": "uint256"
        },
        {
          "internalType": "uint256",
          "name": "_apr",
          "type": "uint256"
        }
      ],
      "name": "verifyReceivable",
      "outputs": [],
      "stateMutability": "nonpayable",
      "type": "function"
    }
  ],
  "bytecode": "0x60806040523461003157600160025561001733610036565b50610021336100b2565b50604051611c7a908161014b8239f35b600080fd5b6001600160a01b0381166000908152600080516020611e05833981519152602052604090205460ff166100ac576001600160a01b03166000818152600080516020611e0583398151915260205260408120805460ff19166001179055339190600080516020611dc58339815191528180a4600190565b50600090565b6001600160a01b0381166000908152600080516020611de5833981519152602052604090205460ff166100ac576001600160a01b03166000818152600080516020611de583398151915260205260408120805460ff191660011790553391907fbdd8a13cde413bbdfec8b00148d478e80611d17275a7bd27c01e16b38c1df69290600080516020611dc58339815191529080a460019056fe608080604052600436101561001357600080fd5b60003560e01c9081630111ee9d146114855750806301ffc9a71461142f578063055c19d8146110125780630bf61c2914610fe9578063136caf4614610f6a578063248a9ca314610f355780632f2ff15d14610ef55780633370b35c14610d8357806336568abe14610d3d5780633f4ba83a14610cd45780635c975abb14610cb15780635d81d69814610ac85780636890b46614610aaa5780636ca2d83714610a6f5780637045cbd614610a4657806382774f18146109575780638456cb59146108fe5780638ebc11d11461087357806391d1485414610826578063940efb5c146107cd578063a217fddf146107b1578063aca6580d14610780578063c25435191461068c578063c3b88f42146105c9578063cedaf51814610417578063d547741f146103d0578063db79cb601461039f578063e29f0f9b146102d25763fc5a44ea1461015e57600080fd5b346102cd5760203660031901126102cd576001600160a01b0361017f61152c565b16600052600460205260406000206040518082602082945493848152019060005260206000209260005b8181106102b45750506101be925003826116c1565b8051906101ca82611779565b9160005b8181106101ea57506101e69060405193849384611676565b0390f35b806101f7600192856117d9565b516000526003602052604060002060405190610212826116a4565b805482528381015460a085811b86900391821660208501526002830154821660408501526003830154606085015260048301546080850152600583015460ff1690840152600682015460c0840152600782015460e084015260088201546101008401526009820154610120840152600a820154610140840152600b90910154166101608201526102a282876117d9565b526102ad81866117d9565b50016101ce565b84548352600194850194869450602090930192016101a9565b600080fd5b346102cd5760403660031901126102cd5760043560243560078110156102cd576102fa611a8a565b81600052600560205261031460ff604060002054166117ed565b81600052600360205260056040600020019060ff8254166007811015610389576103806060927f0dc156817003a86095e09d937c56dcf51add7677f536c735ff017475e7dfe4a29460ff821660ff198254161790556103766040518094611839565b6020830190611839565b426040820152a2005b634e487b7160e01b600052602160045260246000fd5b346102cd5760403660031901126102cd576101e66103c1602435600435611885565b60409391935193849384611676565b346102cd5760403660031901126102cd576104156004356103ef611542565b9061041061040b82600052600060205260016040600020015490565b611afc565b611bc2565b005b346102cd5760003660031901126102cd5760075461043481611846565b61043d82611779565b91600090815b8181106104bd57505061045581611846565b9161045f82611779565b9360005b83811061047d575050506101e69060405193849384611676565b8061048a600192856117d9565b5161049582886117d9565b526104a081846117d9565b516104ab82896117d9565b526104b681886117d9565b5001610463565b6104c68161162d565b90549060031b1c806000526003602052600160ff60056040600020015416146104f3575b50600101610443565b83816105c29261050660019597896117d9565b526000526003602052604060002060405190610521826116a4565b805482528481015460a086811b87900391821660208501526002830154821660408501526003830154606085015260048301546080850152600583015460ff1690840152600682015460c0840152600782015460e084015260088201546101008401526009820154610120840152600a820154610140840152600b90910154166101608201526105b182896117d9565b526105bc81886117d9565b506116e3565b92906104ea565b346102cd5760203660031901126102cd576004356000526003602052610180604060002080549060018060a01b036001820154169060018060a01b036002820154166003820154600483015460ff600585015416600685015490600786015492600887015494600988015496600a89015498600b60018060a01b0391015416996040519b8c5260208c015260408b015260608a0152608089015260a088015260c087015260e0860152610100850152610120840152610140830152610160820152f35b346102cd5760003660031901126102cd576007546106a981611846565b6106b282611779565b91600090815b8181106107325750506106ca81611846565b916106d482611779565b9360005b8381106106f2575050506101e69060405193849384611676565b806106ff600192856117d9565b5161070a82886117d9565b5261071581846117d9565b5161072082896117d9565b5261072b81886117d9565b50016106d8565b61073b8161162d565b90549060031b1c80600052600360205260ff6005604060002001541615610766575b506001016106b8565b83816107799261050660019597896117d9565b929061075d565b346102cd5760203660031901126102cd576004356000526005602052602060ff604060002054166040519015158152f35b346102cd5760003660031901126102cd57602060405160008152f35b346102cd5760403660031901126102cd576107e661152c565b6001600160a01b03166000908152600460205260409020805460243591908210156102cd576020916108179161165e565b90549060031b1c604051908152f35b346102cd5760403660031901126102cd5761083f611542565b600435600052600060205260406000209060018060a01b0316600052602052602060ff604060002054166040519015158152f35b346102cd5760203660031901126102cd576001600160a01b0361089461152c565b166000526004602052604060002060405190816020825491828152019160005260206000209060005b8181106108e8576101e6856108d4818703826116c1565b6040519182916020835260208301906114f8565b82548452602090930192600192830192016108bd565b346102cd5760003660031901126102cd57610917611a37565b61091f611a1a565b600160ff19815416176001557f62e78cea01bee320cd4e420270b5ea74000d11b0c9f74754ebdbfc544b05a2586020604051338152a1005b346102cd5760203660031901126102cd57600435610973611720565b5080600052600560205261098e60ff604060002054166117ed565b60005260036020526101806040600020604051906109ab826116a4565b8054825260018101546001600160a01b039081166020840152600282015481166040808501919091526003830154606085015260048301546080850152600583015460ff1660a0850152600683015460c0850152600783015460e085015260088301546101008501526009830154610120850152600a830154610140850152600b90920154166101608301525190610a44908290611558565bf35b346102cd5760203660031901126102cd576004356007548110156102cd5761081760209161162d565b346102cd5760003660031901126102cd5760206040517fbdd8a13cde413bbdfec8b00148d478e80611d17275a7bd27c01e16b38c1df6928152f35b346102cd5760003660031901126102cd576020600654604051908152f35b346102cd5760603660031901126102cd57600435604435602435610aea611a8a565b826000526005602052610b0460ff604060002054166117ed565b826000526003602052604060002090600582019060ff825416610c5b5760648111610c16576113888411610bc25784937fc89573d2ff51288d8803e408021f95e720f19466984aff9e39dcf6d5fa14223a93606093600160ff19825416179055826007820155816008820155600a429101556040519182526020820152426040820152a27f0dc156817003a86095e09d937c56dcf51add7677f536c735ff017475e7dfe4a260606040516000815260016020820152426040820152a2005b60405162461bcd60e51b815260206004820152602660248201527f415052206d757374206265203c3d2035302520283530303020626173697320706044820152656f696e74732960d01b6064820152608490fd5b60405162461bcd60e51b815260206004820152601960248201527f5269736b2073636f7265206d757374206265203c3d20313030000000000000006044820152606490fd5b60405162461bcd60e51b815260206004820152602860248201527f52656365697661626c6520616c7265616479207665726966696564206f7220706044820152671c9bd8d95cdcd95960c21b6064820152608490fd5b346102cd5760003660031901126102cd57602060ff600154166040519015158152f35b346102cd5760003660031901126102cd57610ced611a37565b60015460ff811615610d2c5760ff19166001557f5db9ee0a495bf2e6ff9c91a7834c1ba4fdd244a5e8aa4e537bd38aeae4b073aa6020604051338152a1005b638dfc202b60e01b60005260046000fd5b346102cd5760403660031901126102cd57610d56611542565b336001600160a01b03821603610d725761041590600435611bc2565b63334bd91960e11b60005260046000fd5b346102cd5760203660031901126102cd5760043567ffffffffffffffff81116102cd57366023820112156102cd57806004013567ffffffffffffffff81116102cd576024820191602436918360051b0101116102cd57610de281611779565b9160005b828110610e0357604051602080825281906101e6908201876115ee565b80610e1160019285856117c9565b35600052600560205260ff60406000205416610e2e575b01610de6565b610e398185856117c9565b356000526003602052604060002060405190610e54826116a4565b805482528381015460a085811b86900391821660208501526002830154821660408501526003830154606085015260048301546080850152600583015460ff1690840152600682015460c0840152600782015460e084015260088201546101008401526009820154610120840152600a820154610140840152600b9091015416610160820152610ee482876117d9565b52610eef81866117d9565b50610e28565b346102cd5760403660031901126102cd57610415600435610f14611542565b90610f3061040b82600052600060205260016040600020015490565b611b37565b346102cd5760203660031901126102cd576020610f62600435600052600060205260016040600020015490565b604051908152f35b346102cd5760203660031901126102cd57610f8361152c565b610f8b611a37565b6001600160a01b03168015610fb2576001600160601b0360a01b6008541617600855600080f35b60405162461bcd60e51b815260206004820152600f60248201526e496e76616c6964206164647265737360881b6044820152606490fd5b346102cd5760003660031901126102cd576008546040516001600160a01b039091168152602090f35b346102cd5760a03660031901126102cd5761102b61152c565b602435906044359060643592600280541461141e576002805561104c611a1a565b80156113d957428311156113945783156113575760405160208101903360601b825260018060a01b038416936001600160601b03199060601b1660348201528260488201528460688201528560888201524260a88201524460c882015260c881526110b860e8826116c1565b5190209283600052600560205260ff6040600020541661131257600854604051600b916001600160a01b03169086906110f0816116a4565b818152602081019433865260408201908882528a60ff60608501928a84526080860190815260a08601906000825260c0870193845260e08701946000865261010088019660008852610120890198428a5261014081019a60008c5261016082019c8d526000526003602052600160406000209e8f92518355818060a01b0390511691019060018060a01b03166001600160601b0360a01b82541617905560018060a01b0390511660028d019060018060a01b03166001600160601b0360a01b8254161790555160038c01555160048b0155511660ff60058a01911660ff1982541617905551600688015551600787015551600886015551600985015551600a84015560018060a01b0390511691019060018060a01b03166001600160601b0360a01b8254161790558260005260056020526040600020600160ff1982541617905533600052600460205260406000208054600160401b8110156112fc5761125c9160018201815561165e565b81549060031b9085821b91600019901b191617905560075493600160401b8510156112fc5761129585600160209701600755600761165e565b81549060031b9086821b91600019901b19161790556112b56006546116e3565b60065560405191825284820152426040820152827fe4b2df290fa59f4c91771b28613b060ea406d10c2d04beebfa90b90551f808b160603393a46001600255604051908152f35b634e487b7160e01b600052604160045260246000fd5b60405162461bcd60e51b815260206004820152601760248201527f52656365697661626c6520494420636f6c6c6973696f6e0000000000000000006044820152606490fd5b60405162461bcd60e51b815260206004820152601560248201527413595d1859185d184810d251081c995c5d5a5c9959605a1b6044820152606490fd5b60405162461bcd60e51b815260206004820152601e60248201527f4475652064617465206d75737420626520696e207468652066757475726500006044820152606490fd5b60405162461bcd60e51b815260206004820152601d60248201527f416d6f756e74206d7573742062652067726561746572207468616e20300000006044820152606490fd5b633ee5aeb560e01b60005260046000fd5b346102cd5760203660031901126102cd5760043563ffffffff60e01b81168091036102cd57602090637965db0b60e01b8114908115611474575b506040519015158152f35b6301ffc9a760e01b14905082611469565b346102cd5760003660031901126102cd57600754808252602082019060076000527fa66cc928b5edb82af9bd49922954155ab7b0942694bea4ce44661d9a8736c6889060005b8181106114e2576101e6856108d4818703826116c1565b82548452602090930192600192830192016114cb565b906020808351928381520192019060005b8181106115165750505090565b8251845260209384019390920191600101611509565b600435906001600160a01b03821682036102cd57565b602435906001600160a01b03821682036102cd57565b610160908051835260018060a01b03602082015116602084015260018060a01b036040820151166040840152606081015160608401526080810151608084015260ff60a08201511660a084015260c081015160c084015260e081015160e08401526101008101516101008401526101208101516101208401526101408101516101408401528160018060a01b0391015116910152565b906020808351928381520192019060005b81811061160c5750505090565b9091926020610180826116226001948851611558565b0194019291016115ff565b60075481101561164857600760005260206000200190600090565b634e487b7160e01b600052603260045260246000fd5b80548210156116485760005260206000200190600090565b93929161169f906116916040936060885260608801906114f8565b9086820360208801526115ee565b930152565b610180810190811067ffffffffffffffff8211176112fc57604052565b90601f8019910116810190811067ffffffffffffffff8211176112fc57604052565b60001981146116f25760010190565b634e487b7160e01b600052601160045260246000fd5b67ffffffffffffffff81116112fc5760051b60200190565b6040519061172d826116a4565b6000610160838281528260208201528260408201528260608201528260808201528260a08201528260c08201528260e08201528261010082015282610120820152826101408201520152565b9061178382611708565b61179060405191826116c1565b82815280926117a1601f1991611708565b019060005b8281106117b257505050565b6020906117bd611720565b828285010152016117a6565b91908110156116485760051b0190565b80518210156116485760209160051b010190565b156117f457565b60405162461bcd60e51b815260206004820152601960248201527f52656365697661626c6520646f6573206e6f74206578697374000000000000006044820152606490fd5b9060078210156103895752565b9061185082611708565b61185d60405191826116c1565b828152809261186e601f1991611708565b0190602036910137565b919082018092116116f257565b9060075490818310156119bf5761189c9083611878565b928184116119b6575b8284039384116116f2576118b884611846565b936118c281611779565b9360005b8281106118d257505050565b806118e76118e260019385611878565b61162d565b90549060031b1c806118f9838b6117d9565b526000526003602052604060002060405190611914826116a4565b805482528381015460a085811b86900391821660208501526002830154821660408501526003830154606085015260048301546080850152600583015460ff1690840152600682015460c0840152600782015460e084015260088201546101008401526009820154610120840152600a820154610140840152600b90910154166101608201526119a482896117d9565b526119af81886117d9565b50016118c6565b925080926118a5565b5090506020916040516119d284826116c1565b6000815260003681376040519360006119eb82876116c1565b8552601f19810160005b818110611a0457505050929190565b8290611a0e611720565b82828a010152016119f5565b60ff60015416611a2657565b63d93c066560e01b60005260046000fd5b3360009081527fad3228b676f7d3cd4284a5443f17f1962b36e491b30a40b2405849e597ba5fb5602052604090205460ff1615611a7057565b63e2517d3f60e01b60005233600452600060245260446000fd5b3360009081527fdad1a59d2528e13766828d254d06137128dd2f23ce1c19910c4a686558e946da602052604090205460ff1615611ac357565b63e2517d3f60e01b600052336004527fbdd8a13cde413bbdfec8b00148d478e80611d17275a7bd27c01e16b38c1df69260245260446000fd5b60008181526020818152604080832033845290915290205460ff1615611b1f5750565b63e2517d3f60e01b6000523360045260245260446000fd5b6000818152602081815260408083206001600160a01b038616845290915290205460ff16611bbb576000818152602081815260408083206001600160a01b0395909516808452949091528120805460ff19166001179055339291907f2f8788117e7eff1d82e926ec794901d17c78024a50270940304540a733656f0d9080a4600190565b5050600090565b6000818152602081815260408083206001600160a01b038616845290915290205460ff1615611bbb576000818152602081815260408083206001600160a01b0395909516808452949091528120805460ff19169055339291907ff6391f5c32d9c69d2a47ea670b442974b53935d1edc7fd64eb21e047a839171b9080a460019056fea26469706673582212207807d5f2ba7f6dfbbd662a2facc426c4bead997c4ac945f19ba7a0c8aefff83f64736f6c634300081c00332f8788117e7eff1d82e926ec794901d17c78024a50270940304540a733656f0ddad1a59d2528e13766828d254d06137128dd2f23ce1c19910c4a686558e946daad3228b676f7d3cd4284a5443f17f1962b36e491b30a40b2405849e597ba5fb5",
  "linkReferences": {},
  "deployedLinkReferences": {}
}